:020000040800F2
:10000000F006002089010008EF120008A91100087D
:10001000ED1200085D03000835150008000000001F
:10002000000000000000000000000000B314000801
:100030005F03000800000000B1140008B5140008B8
:10004000A3010008A3010008A3010008A301000800
:10005000A3010008A3010008A3010008A3010008F0
:10006000A3010008A3010008A3010008A3010008E0
:10007000A3010008A3010008A3010008A3010008D0
:10008000A3010008A3010008A3010008A3010008C0
:10009000A3010008A3010008A3010008A3010008B0
:1000A000A3010008A3010008A3010008A3010008A0
:1000B000A3010008A3010008A3010008A301000890
:1000C000A3010008A3010008A3010008A301000880
:1000D000A3010008A3010008A3010008A301000870
:1000E000A3010008A3010008A301000800F002F822
:1000F00000F03AF80AA090E8000C82448344AAF188
:100100000107DA4501D100F02FF8AFF2090EBAE885
:100110000F0013F0010F18BFFB1A43F0010318473B
:100120007015000090150000103A24BF78C878C1FF
:10013000FAD8520724BF30C830C144BF04680C60ED
:10014000704700000023002400250026103A28BF35
:1001500078C1FBD8520728BF30C148BF0B60704739
:100160001FB51FBD10B510BD00F058F81146FFF7C0
:10017000F7FF01F0F1F900F076F803B4FFF7F2FFB2
:1001800003BC00F07DF8000009488047094800479B
:10019000FEE7FEE7FEE7FEE7FEE7FEE7FEE7FEE737
:1001A000FEE7FEE704480549054A064B7047000094
:1001B00033150008ED000008F0000020F0060020D4
:1001C000F0020020F00200204FF0000200B51346BC
:1001D00094469646203922BFA0E80C50A0E80C5067
:1001E000B1F12001BFF4F7AF090728BFA0E80C5018
:1001F00048BF0CC05DF804EB890028BF40F8042B11
:1002000008BF704748BF20F8022B11F0804F18BF7D
:1002100000F8012B7047704770477047754600F033
:100220002BF8AE4605006946534620F00700854688
:1002300018B020B5FFF7B6FFBDE820404FF000062C
:100240004FF000074FF000084FF0000B21F00701BE
:10025000AC46ACE8C009ACE8C009ACE8C009ACE801
:10026000C0098D46704710B50446AFF300802046A4
:10027000BDE81040FFF781BF004870478C000020A8
:1002800001491820ABBEFEE726000200704770B59A
:10029000044600688168C943C90716D1816821F006
:1002A0000101816000F0B8FB054609E000F0B4FBF5
:1002B000401B022804D920688068C043C00706D0CC
:1002C00020688068C043C007F0D0002070BDA06ADD
:1002D00040F01000A062E06A40F00100E0620120FE
:1002E00070BD0000F8B500260446009600688168DD
:1002F000C943C9072CD0816841F0010181601548CC
:1003000015490068B0FBF1F000E0401E00900028A5
:10031000FBD100F081FB054615E000F07DFB401BA2
:10032000022810D920688068C043C0070BD0A06A9B
:1003300040F01000A062E06A40F00100E06284F842
:1003400024600120F8BD20688068C043C007E4D164
:100350000020F8BD1C00002040420F00FEE770475F
:10036000F8B50023009390F824201C46012A12D0EF
:10037000012280F824204A681F26072A0DD205682A
:100380006F6B521E02EB82029640B7430E68964096
:1003900037436F6319E00220F8BD05680D2A0AD2C1
:1003A0002F6BD21F02EB82029640B7430E68964035
:1003B00037432F6309E0EF6A0D3A02EB8202964061
:1003C000B7430E6896403743EF620A680726056810
:1003D0000A2A0AD3EF680A3A02EB42029640B74370
:1003E0008E6896403743EF6008E02F6902EB4202C7
:1003F0009640B7438E68964037432F610A68102AAB
:1004000001D0112A20D1124D0268AA4217D1956855
:100410002D0219D4956845F40005956009681029E6
:1004200012D10C490C4A0968B1FBF2F101EB8101D0
:10043000490000E0491E00910029FBD104E0816AD7
:1004400041F020018162012380F824401846F8BD64
:10045000002401401C00002040420F000068C06CD6
:10046000704700002DE9F0414FF0000604003546CA
:100470007DD0A06A002728B9E76284F8247020465E
:1004800000F07EF82046FFF702FFA16AC90600D4FB
:1004900020B1A06A40F01000A06268E0A16A21F4D7
:1004A000885141F00201A1626268E169237B0A433D
:1004B00046EA43010A43A1684FF48076B14208D06E
:1004C000012906D0002194F814C0BCF1010F02D01C
:1004D0000AE03146F7E7F3B1A36A43F02003A362D1
:1004E000E36A43F00103E3622368D3F804C02CF409
:1004F000694C4CEA010CC3F804C021688B68DFF832
:1005000074C003EA0C0313438B60A168B1420BD0A3
:10051000012909D00CE0DFF860C0A3690CEB43337C
:100520000B4343F40061DFE7218A0D05A5F5801533
:100530002168CB6A23F470032B43CB62216889685E
:100540000E4B1940914208D1E762A16A21F00201E5
:1005500041F00101A162BDE8F081A06A20F0020033
:1005600040F01000A062E06A40F00100E06201206B
:10057000F1E70000FDF7E1FF00E0FFFFFE0E1FFFC7
:1005800010B586B0002100910191029103911A4C9F
:1005900002681A4903231A48A24211D18A6942F417
:1005A00000728A618A6902F4007204928A6942F0D8
:1005B00004028A61896901F004010491022113E0B7
:1005C000104CA24215D18A6942F480628A618A691C
:1005D00002F4806204928A6942F004028A618969A5
:1005E00001F0040104910421CDE90013694600F0F3
:1005F0001BF906B010BD00000024014000100240AD
:1006000000080140002801402DE9F8434FF00008A0
:100610000D460446CDF8008000F0FEF9074620683C
:100620008168C90508D5A06A40F02000A06284F85E
:1006300024800120BDE8F8834168C90503D4C06A5D
:1006400010F4700F29D0022000F076FA3A490968B8
:10065000B1FBF0F620680169384A11424FEA6202A4
:100660004FEAA2131ED1C1684FEA621C11EA0C0FB7
:1006700018D10169114224D1C068184221D1142037
:1006800022E0681C09D025B100F0C6F9C01BA842C1
:1006900003D920680068800724D520680068800797
:1006A000EFD52CE00169114202D1C168194206D090
:1006B000026923490A4206D1C068084203D1542086
:1006C00002E0292000E0FC204643009815E0681C69
:1006D00010D025B100F0A0F9C01BA8420AD900989B
:1006E000B04207D2A06A40F00400A06284F82480DF
:1006F00003209FE70098401C0090B042E7D3216898
:100700006FF012000860A06A40F40070A0622068D8
:100710008068C0F3424007280CD1207B50B9A06A02
:1007200020F48070A062A06AC00403D4A06A40F0E4
:100730000100A06200207DE71C00002024499224D3
:100740004992240070B5044690F8240001280DD089
:10075000012084F824002046FFF7C4FD01004FF07B
:10076000000205D084F82420084670BD022070BD28
:10077000A06A40F20123984340F48070A0621F4DAC
:1007800020681F4BA84218D11E6816F4702F14D091
:10079000A66A46F48016A6621E68760505D5A66A86
:1007A00026F4005646F48056A662A66AF6040AD5D8
:1007B000E66A26F00606E66206E0A66A26F48016D9
:1007C000A6624668E9E7E26284F824206FF002023C
:1007D000026020688268C2F34242072A05D1A8421B
:1007E00008D11A6812F4702F04D0826842F4801283
:1007F0008260B9E7826842F4A002F9E7002801406C
:100800000424014070B5044600F006F90546601C5A
:1008100002D004480078044400F0FEF8401BA042D7
:10082000FAD370BD100000202DE9F84FDFF8A49135
:100830000024A9F1040B23464FF00F0809F1040A24
:10084000ABF1040EBEE00127A7403A40BA4272D194
:10085000DFF884C14D68A5EB0C0665452BD00DDC97
:10086000032D34D005DC35B3012D19D0022D2FD145
:100870001BE0112D16D0122D2AD119E0B6F5881FD4
:1008800019D006DCB6F5803F15D0B6F5801F1FD114
:1008900011E0B6F5001F0ED0B6F5041F18D10AE01E
:1008A000CB6815E0CB681B1D12E0CB6808330FE066
:1008B000CB680C330CE08B682BB1012B4FF0080395
:1008C00003D0476104E0042302E0076100E0002355
:1008D000FF2A01D8064601E000F104064FEA84052C
:1008E00001D9A5F12005376808FA05FC27EA0C07AD
:1008F00003FA05F547EA050737604D68ED0060D556
:10090000364DAE6946F00106AE61AD6924F00306CE
:1009100005F001050095324D7719BE68A5072D0F2A
:1009200008FA05FC26EA0C06DFF8B8C0604503D1DA
:100930004FF0000C17E044E0DFF8ACC0604502D196
:100940004FF0010C0FE0DFF8A4C0604502D14FF07A
:10095000020C08E0DFF898C0604502D14FF0030CAC
:1009600001E04FF0040C0CFA05FC4CEA060CC7F849
:1009700008C04D68D9F80060ED024D4601D5164318
:1009800000E096432E604D68DAF80060AD025546EF
:1009900001D5164300E096432E604D68DBF80060F9
:1009A000AD035D4601D5164300E096432E604D68C9
:1009B000DEF80060ED03754601D5164300E096436E
:1009C0002E60641C0A6832FA04F57FF43CAFBDE87F
:1009D000F88F0000080401400000111000100240D0
:1009E0000000014000080140000C014000100140DF
:1009F000001401408068084000D001207047C268A0
:100A000021EA02030A4043EA0241016170470AB148
:100A1000016170470904FBE70148806870470000E6
:100A200010000020024881680278114481607047FC
:100A300010000020074810B5016841F01001016066
:100A4000032000F067F8002000F006F800F024F81A
:100A5000002010BD0020024070B50D4D04464FF43B
:100A60007A712878B1FBF0F00A490968B1FBF0F01F
:100A700000F086FB48B9102C07D200222146501EF8
:100A800000F028F800206C6070BD012070BD0000EF
:100A9000100000201C0000200C4808B5816941F0BE
:100AA00001018161816901F001010091C16941F099
:100AB0008051C161C069064900F0805000904868CB
:100AC00020F0E06040F00070486008BD0010024077
:100AD00000000140F0B40E4B1B68C3F30223C3F1C6
:100AE0000704042C00D904241D1D072D01D2002366
:100AF00000E0DB1E012606FA04F56D1E0D409D4048
:100B00009E40761E164045EA0601F0BC00F013BD7B
:100B10000CED00E0064A00F0070110684FF6FF03F5
:100B2000184040EA01200349084310607047000064
:100B30000CED00E00000FA0510B501460020234C42
:100B4000012922D0022939D010291DD161682268DB
:100B5000D20119D51E48C1F38342C903805C0AD56E
:100B600061681B4AC1F34041921E515C194AB2FBB5
:100B7000F1F1484301E0184948436168490203D450
:100B800040000321B0FBF1F010BD226AC2F3012145
:100B9000012903D1920701D5C80310BD022905D14F
:100BA000626A920702D549F6404010BD0329FCD184
:100BB00021688903F9D54FF2244010BD00F01EF9D9
:100BC0006168C1F38131491C4900DBE70010024034
:100BD0006816000800127A0000093D002DE9F8436C
:100BE00004460078344FC00752D0F8690025C00091
:100BF00008D4F86940F08050F861F869012500F0E8
:100C0000805000902D480168C90511D401688046C4
:100C100041F480710160FFF7FFFE064604E0FFF734
:100C2000FBFE801B642822D8D8F80000C005F6D54A
:100C3000386A10F4407020D0A18801F440718142DC
:100C40001BD0386A1E49012220F440700A6000223D
:100C50000A603862C00710D0FFF7DEFE064641F298
:100C6000883807E0FFF7D8FE811B414502D90320F1
:100C7000BDE8F883386A8007F4D5386A616820F4E3
:100C80004070084338621DB1F86920F08050F86167
:100C90002078800705D57868A16820F44040084393
:100CA00078602078C00605D57868E16820F4800077
:100CB000084378600020DBE700100240007000402D
:100CC000400442422DE9F0470D46040067D0DFF8AA
:100CD0001881D8F8000000F00700A8420CD2D8F81C
:100CE000001021F007012943C8F80010D8F80000CF
:100CF00000F00700A84252D120683C4E810712D56F
:100D0000400703D5706840F4E06070602078000709
:100D100003D5706840F4605070607068A16820F07E
:100D2000F000084370602078C00727D06068012871
:100D300010D03168022810D0890700292FDA716895
:100D400021F0030101437160FFF766FE074641F29F
:100D500088390CE031688903EFE78901EDE7FFF797
:100D60005BFEC11B494502D90320BDE8F0877068CE
:100D7000616800F00C00B0EB810FF0D1D8F80010E2
:100D8000404601F00701A9420BD9016821F0070193
:100D900029430160006800F00700A84201D001204B
:100DA000E3E72078400705D57068E16820F4E0604B
:100DB000084370602078000706D57068216920F428
:100DC000605040EAC100706000F028F87168084A7D
:100DD000C1F30311515CC840064908600648006829
:100DE000FFF73AFE0020C0E700200240001002405A
:100DF000781600081C000020140000200448054953
:100E000000684968044AC1F3C221515CC840704778
:100E10001C00002000100240881600080E4B596884
:100E20000E4801F00C02042A11D0082A0FD10C48F8
:100E3000C1F38342C903805C0AD55968084AC1F3EB
:100E40004041921E515C054A5043B0FBF1F070479F
:100E500004494843704700000010024000127A0025
:100E60005616000800093D002DE9F84F04006FD028
:100E70002078BE4DC00747D06868C0F381000128C4
:100E800007D06868C0F38100022809D16868C003F0
:100E900006D52868800337D560680028E7D033E09E
:100EA0006068B0F5803F0BD010B1B0F5A02F11D025
:100EB000286820F480302860286820F4802002E030
:100EC000286840F480302860606888B1FFF7A4FD8E
:100ED000064609E0286840F480202860F0E7FFF724
:100EE0009BFD801B642873D828688003F7D50BE02E
:100EF000FFF792FD064604E0FFF78EFD801B642895
:100F0000F1D828688003F7D42078DFF8648280075E
:100F10004FF0010A4FF0000939D5686810F00C0F46
:100F200007D06868C0F38100022809D16868C0034F
:100F300006D42868800714D52069012808D110E05C
:100F40002069B0B1C8F800A0FFF766FD064605E0CD
:100F500007E1FFF761FD801B0228C4D828688007DD
:100F6000F7D52868616920F0F80040EAC1002860E0
:100F70000DE0C8F80090FFF74FFD064604E0FFF7CC
:100F80004BFD801B022823D828688007F7D42078DF
:100F900000072CD57748A169D9B1C0F800A0FFF7A8
:100FA0003BFD064604E0FFF737FD801B02280FD803
:100FB000686A8007F7D570484FF4FA510068B0FBB3
:100FC000F1F0009000BF0098411E0091FAD20EE0AF
:100FD0007CE0C0F80090FFF71FFD064604E0FFF735
:100FE0001BFD801B022871D8686A8007F7D420781F
:100FF00040075BD5E8690027C00008D4E86940F0E5
:101000008050E861E869012700F0805000905B485B
:101010000168C90511D40168834641F480710160FB
:10102000FFF7FAFC064604E0FFF7F6FC801B642895
:101030004CD8DBF80000C005F6D5E06801280AD0DE
:1010400008B1052813D0286A20F001002862286A18
:1010500020F0040002E0286A40F001002862E06805
:1010600041F2883B88B1FFF7D7FC064609E0286AC1
:1010700040F004002862EEE7FFF7CEFC811B5945E3
:101080005BD8286A8007F7D50BE0FFF7C5FC06465A
:1010900004E0FFF7C1FC811B59454ED8286A800740
:1010A000F7D41FB1E86920F08050E861E069A8B387
:1010B0006968C1F38101022946D00228484606D05A
:1010C000C8F86000FFF7A8FC044639E035E0474661
:1010D000C8F86000FFF7A0FC064604E0FFF79CFCA0
:1010E000801B022829D828688001F7D4206AB0F52F
:1010F000803F05D16868A16820F40030084368602B
:10110000D4E908010843696821F474110843686050
:10111000C7F860A0FFF780FC044605E023E0FFF776
:101120007BFC001B022808D828688001F7D51AE04C
:10113000FFF772FC001B022802D90320BDE8F88FDC
:1011400028688001F4D40EE00128F7D06868226A8C
:1011500000F48031914204D1616A00F47010884239
:1011600001D00120EAE70020E8E70000001002407B
:1011700000004242800442421C00002000700040F7
:1011800010B5401EB0F1807F01D3012010BD4FF09B
:10119000E02460610F21601700F0CDF90020A0610C
:1011A00007202061002010BDFEE700003EB50024AE
:1011B00010480094019402940D4984600160012557
:1011C0000573047505614FF460214460C161FFF748
:1011D00049F908B172B6FEE70095CDE901546946B8
:1011E0000448FFF7BDF8002801D072B6FEE73EBD07
:1011F00000240140200000203EB500241148009446
:10120000019402940E498460016001250573047500
:1012100005614FF460214460C161FFF723F908B113
:1012200072B6FEE70220CDE9000569460294054842
:10123000FFF796F8002801D072B6FEE73EBD000029
:101240000028014050000020F0B585B0002424485B
:101250000094019402940394816941F0100181612A
:10126000816901F010010491816941F020018161DF
:10127000816901F020010491816941F004018161DB
:101280008069184E00F004004FF4005504900022CD
:1012900029463046FFF7BBFB134F0022D8213846C2
:1012A000FFF7B5FB0220CDE9024000950125694614
:1012B00001953046FFF7B8FAD820CDE900050320A4
:1012C000CDE9024069463846FFF7AEFA2020CDE965
:1012D0000004694638460294FFF7A6FA05B0F0BD4F
:1012E000001002400010014000080140FEE7FEE748
:1012F00010B56420FFF786FA1A4C002240212046E0
:10130000FFF785FB012280212046FFF780FB0022AA
:1013100008212046FFF77BFB05221349302000F00F
:1013200089F811490522491D2A2000F083F800217F
:10133000202000F0A3F80121212000F09FF80121D6
:10134000222000F09BF80021252000F097F82021B2
:10135000312000F093F80721BDE81040262000F06E
:101360008DB8000000080140000000202DE9F04188
:10137000124F05460024280601D5012200E0002274
:1013800010213846FFF743FB6806060E01220821AC
:101390003846FFF73CFB20213846FFF72BFB40EA9D
:1013A0000605002208213846FFF731FB641CE4B231
:1013B000082CE0D32846BDE8F08100000008014079
:1013C00010B50A4C002240212046FFF720FB0E21D9
:1013D000202000F053F8012240212046FFF717FBA0
:1013E000BDE810408220FFF70DBA00000008014060
:1013F00070B50E4C0546002240212046FFF707FB42
:1014000005220B492A2000F015F820222946A020A9
:1014100000F010F80E21202000F030F82046BDE842
:10142000704001224021FFF7F2BA0000000801409D
:10143000000000202DE9F041DFF83C8016460D4603
:1014400007460024224680214046FFF7E0FA38464E
:10145000FFF78CFF074605E015F8010BFFF786FF45
:10146000641CE4B2B442F7D3012280214046FFF766
:10147000CEFA3846BDE8F0810008014070B50B4C4B
:101480000E460546002280212046FFF7C0FA284676
:10149000FFF76CFF05463046FFF768FF0122802109
:1014A0002046FFF7B4FA284670BD0000000801404E
:1014B00070477047FFF7B6BA30B593B02821684639
:1014C000FEF782FE14210AA8FEF77EFE0024012109
:1014D0000F9410940804CDE9001011941294029412
:1014E00002250491CDE907504FF4E01009906846B9
:1014F000FFF7BAFC08B172B6FEE70F20CDE90A0586
:101500004FF48060CDE90C4002210AA80E94FFF749
:10151000D9FB08B172B6FEE74FF4004011900F9569
:101520000FA8FFF75BFB002801D072B6FEE713B0EF
:1015300030BD7047FEE70907090E002804DB00F103
:10154000E02080F80014704700F00F0000F1E02068
:1015500080F8141D70470000FFF76CFAFFF7ACFF2E
:10156000FFF772FEFFF722FEFFF746FE3648FFF751
:10157000E9F835483030FFF7E5F8FFF7B9FEFFF737
:101580001FFF314D6426314C6035DFF8C4B04FF099
:1015900000094FF47A780A274FF4005A64212A4848
:1015A000FFF732F82848FEF759FF208026486421CB
:1015B0003030FFF729F824483030FEF74FFF80B273
:1015C000608021884246B1FBF2F330332B70B1FBCF
:1015D000F2F308FB1313B3FBF6F330336B70B1FB7C
:1015E000F6F306FB1313B3FBF7F33033AB70B1FB29
:1015F000F7F307FB13113031E970B0FBF2F1303132
:101600002971B0FBF2F108FB1101B1FBF6F13031A9
:101610006971B0FBF6F106FB1101B1FBF7F1303156
:10162000A971B0FBF7F107FB11003030E8710648F3
:1016300085F808906030FFF7DBFEFFF7C1FE5146EA
:101640005846FFF7DCF9A9E7200000200A00002037
:1016500000100140010202030405060708090A0BF5
:101660000C0D0E0F101001020203040506070809F5
:101670000A0B0C0D0E0F10100000000000000000FF
:101680000102030406070809000000000102030428
:10169000B01600080000002020000000280100080B
:1016A000D016000820000020D006000044010008E9
:1016B00068310810016831081001000000000000C6
:1016C0000100000010000000000000000024F400F1
:04000005080000ED02
:00000001FF
