:020000040800F2
:10000000D806002089010008CB0E0008650D000805
:10001000C90E00088F020008391300080000000014
:10002000000000000000000000000000FB100008BD
:100030009102000800000000F9100008FD100008FF
:10004000A3010008A3010008A3010008A301000800
:10005000A3010008A3010008A3010008A3010008F0
:10006000A3010008A3010008A3010008A3010008E0
:10007000A3010008A3010008A3010008A3010008D0
:10008000A3010008A3010008A3010008A3010008C0
:10009000A3010008A3010008A3010008A3010008B0
:1000A000A3010008A3010008A3010008A3010008A0
:1000B000A3010008A3010008A3010008A301000890
:1000C000A3010008A3010008A3010008A301000880
:1000D000A3010008A3010008A3010008A301000870
:1000E000A3010008A3010008A301000800F002F822
:1000F00000F03AF80AA090E8000C82448344AAF188
:100100000107DA4501D100F02FF8AFF2090EBAE885
:100110000F0013F0010F18BFFB1A43F0010318473B
:100120003414000054140000103A24BF78C878C179
:10013000FAD8520724BF30C830C144BF04680C60ED
:10014000704700000023002400250026103A28BF35
:1001500078C1FBD8520728BF30C148BF0B60704739
:100160001FB51FBD10B510BD00F058F81146FFF7C0
:10017000F7FF01F0F3F800F076F803B4FFF7F2FFB1
:1001800003BC00F07DF8000009488047094800479B
:10019000FEE7FEE7FEE7FEE7FEE7FEE7FEE7FEE737
:1001A000FEE7FEE704480549054A064B7047000094
:1001B0005D110008ED000008D8000020D8060020DE
:1001C000D8020020D80200204FF0000200B51346EC
:1001D00094469646203922BFA0E80C50A0E80C5067
:1001E000B1F12001BFF4F7AF090728BFA0E80C5018
:1001F00048BF0CC05DF804EB890028BF40F8042B11
:1002000008BF704748BF20F8022B11F0804F18BF7D
:1002100000F8012B7047704770477047754600F033
:100220002BF8AE4605006946534620F00700854688
:1002300018B020B5FFF7B6FFBDE820404FF000062C
:100240004FF000074FF000084FF0000B21F00701BE
:10025000AC46ACE8C009ACE8C009ACE8C009ACE801
:10026000C0098D46704710B50446AFF300802046A4
:10027000BDE81040FFF781BF0048704778000020BC
:1002800001491820ABBEFEE7260002007047FEE7DA
:100290007047000070B5044600F006F90546601C82
:1002A00002D004480078044400F0FEF8401BA0424D
:1002B000FAD370BD140000202DE9F84FDFF8A491A7
:1002C0000024A9F1040B23464FF00F0809F1040A9A
:1002D000ABF1040EBEE00127A7403A40BA4272D10A
:1002E000DFF884C14D68A5EB0C0665452BD00DDC0D
:1002F000032D34D005DC35B3012D19D0022D2FD1BB
:100300001BE0112D16D0122D2AD119E0B6F5881F49
:1003100019D006DCB6F5803F15D0B6F5801F1FD189
:1003200011E0B6F5001F0ED0B6F5041F18D10AE093
:10033000CB6815E0CB681B1D12E0CB6808330FE0DB
:10034000CB680C330CE08B682BB1012B4FF008030A
:1003500003D0476104E0042302E0076100E00023CA
:10036000FF2A01D8064601E000F104064FEA8405A1
:1003700001D9A5F12005376808FA05FC27EA0C0722
:1003800003FA05F547EA050737604D68ED0060D5CB
:10039000364DAE6946F00106AE61AD6924F0030644
:1003A00005F001050095324D7719BE68A5072D0FA0
:1003B00008FA05FC26EA0C06DFF8B8C0604503D150
:1003C0004FF0000C17E044E0DFF8ACC0604502D10C
:1003D0004FF0010C0FE0DFF8A4C0604502D14FF0F0
:1003E000020C08E0DFF898C0604502D14FF0030C22
:1003F00001E04FF0040C0CFA05FC4CEA060CC7F8BF
:1004000008C04D68D9F80060ED024D4601D516438D
:1004100000E096432E604D68DAF80060AD02554664
:1004200001D5164300E096432E604D68DBF800606E
:10043000AD035D4601D5164300E096432E604D683E
:10044000DEF80060ED03754601D5164300E09643E3
:100450002E60641C0A6832FA04F57FF43CAFBDE8F4
:10046000F88F000008040140000011100010024045
:100470000000014000080140000C01400010014054
:10048000001401408068084000D001207047C26815
:1004900021EA02030A4043EA0241016170470AB1BE
:1004A000016170470904FBE701488068704700005C
:1004B000140000200248816802781144816070476E
:1004C00014000020074810B5016841F010010160D8
:1004D000032000F067F8002000F006F800F024F890
:1004E000002010BD0020024070B50D4D04464FF4B1
:1004F0007A712878B1FBF0F00A490968B1FBF0F095
:1005000000F0B0FA48B9102C07D200222146501E44
:1005100000F028F800206C6070BD012070BD000064
:1005200014000020200000200C4808B5816941F02B
:1005300001018161816901F001010091C16941F00E
:100540008051C161C069064900F080500090486840
:1005500020F0E06040F00070486008BD00100240EC
:1005600000000140F0B40E4B1B68C3F30223C3F13B
:100570000704042C00D904241D1D072D01D20023DB
:1005800000E0DB1E012606FA04F56D1E0D409D40BD
:100590009E40761E164045EA0601F0BC00F0CDBE36
:1005A0000CED00E0064A00F0070110684FF6FF036B
:1005B000184040EA012003490843106070470000DA
:1005C0000CED00E00000FA052DE9F0470D460400AF
:1005D00067D0DFF81881D8F8000000F00700A842C3
:1005E0000CD2D8F8001021F007012943C8F80010F8
:1005F000D8F8000000F00700A84252D120683C4E15
:10060000810712D5400703D5706840F4E060706040
:100610002078000703D5706840F4605070607068FF
:10062000A16820F0F000084370602078C00727D050
:100630006068012810D03168022810D0890700298D
:100640002FDA716821F0030101437160FFF72CFF7D
:10065000074641F288390CE031688903EFE78901E8
:10066000EDE7FFF721FFC11B494502D90320BDE893
:10067000F0877068616800F00C00B0EB810FF0D17A
:10068000D8F80010404601F00701A9420BD90168D3
:1006900021F0070129430160006800F00700A8422B
:1006A00001D00120E3E72078400705D57068E168B4
:1006B00020F4E060084370602078000706D5706879
:1006C000216920F4605040EAC100706000F018F821
:1006D0007168084AC1F30311515CC84006490860BB
:1006E00006480068FFF700FF0020C0E70020024036
:1006F00000100240421500082000002018000020D1
:100700000E4B59680E4801F00C02042A11D0082A39
:100710000FD10C48C1F38342C903805C0AD55968E4
:10072000084AC1F34041921E515C054A5043B0FB58
:10073000F1F0704704494843704700000010024040
:1007400000127A003215000800093D002DE9F84F2B
:1007500004006FD02078BE4DC00747D06868C0F352
:100760008100012807D06868C0F38100022809D100
:100770006868C00306D52868800337D560680028FC
:10078000E7D033E06068B0F5803F0BD010B1B0F532
:10079000A02F11D0286820F480302860286820F429
:1007A000802002E0286840F480302860606888B1CA
:1007B000FFF77AFE064609E0286840F480202860AA
:1007C000F0E7FFF771FE801B642873D82868800368
:1007D000F7D50BE0FFF768FE064604E0FFF764FE7E
:1007E000801B6428F1D828688003F7D42078DFF8CC
:1007F000648280074FF0010A4FF0000939D568681C
:1008000010F00C0F07D06868C0F38100022809D1EE
:100810006868C00306D42868800714D520690128B9
:1008200008D110E02069B0B1C8F800A0FFF73CFE85
:10083000064605E007E1FFF737FE801B0228C4D813
:1008400028688007F7D52868616920F0F80040EA39
:10085000C10028600DE0C8F80090FFF725FE0646AD
:1008600004E0FFF721FE801B022823D828688007B8
:10087000F7D4207800072CD57748A169D9B1C0F802
:1008800000A0FFF711FE064604E0FFF70DFE801BF7
:1008900002280FD8686A8007F7D570484FF4FA51DC
:1008A0000068B0FBF1F0009000BF0098411E00917D
:1008B000FAD20EE07CE0C0F80090FFF7F5FD0646A6
:1008C00004E0FFF7F1FD801B022871D8686A8007F9
:1008D000F7D4207840075BD5E8690027C00008D42A
:1008E000E86940F08050E861E869012700F0805035
:1008F00000905B480168C90511D40168834641F442
:1009000080710160FFF7D0FD064604E0FFF7CCFDE3
:10091000801B64284CD8DBF80000C005F6D5E068E1
:1009200001280AD008B1052813D0286A20F0010058
:100930002862286A20F0040002E0286A40F00100E2
:100940002862E06841F2883B88B1FFF7ADFD0646BA
:1009500009E0286A40F004002862EEE7FFF7A4FDF2
:10096000811B59455BD8286A8007F7D50BE0FFF754
:100970009BFD064604E0FFF797FD811B59454ED8C5
:10098000286A8007F7D41FB1E86920F08050E86139
:10099000E069A8B36968C1F38101022946D0022841
:1009A000484606D0C8F86000FFF77EFD044639E0EF
:1009B00035E04746C8F86000FFF776FD064604E0DC
:1009C000FFF772FD801B022829D828688001F7D420
:1009D000206AB0F5803F05D16868A16820F4003036
:1009E00008436860D4E908010843696821F4741178
:1009F00008436860C7F860A0FFF756FD044605E0AD
:100A000023E0FFF751FD001B022808D82868800169
:100A1000F7D51AE0FFF748FD001B022802D9032092
:100A2000BDE8F88F28688001F4D40EE00128F7D0E3
:100A30006868226A00F48031914204D1616A00F44E
:100A40007010884201D00120EAE70020E8E70000AA
:100A50000010024000004242800442422000002078
:100A60000070004010B5401EB0F1807F01D301201E
:100A700010BD4FF0E02460610F21601700F05DFCB5
:100A80000020A06107202061002010BD70B590F803
:100A90003C20012A26D0012580F83C50022280F813
:100AA0003D2002685368946823F070060B68334356
:100AB00053600D4B02689A4208D0B2F1804F05D0C6
:100AC0000A4B9A4202D00A4B9A4204D1496824F058
:100AD00080031943916080F83D50002180F83C105C
:100AE000084670BD022070BD002C0140000400408B
:100AF0000008004010B586B00021009101910291DC
:100B000003910068B0F1804F2BD11748816941F003
:100B100004018161816901F004010491816941F05E
:100B2000080181618069022400F0080004904FF4FC
:100B30000040CDE9000469460C480394FFF7BCFB74
:100B40000820CDE90004694609480394FFF7B4FB87
:100B50000849486820F4407040F0E06040F480703C
:100B6000486006B010BD00000010024000080140BF
:100B7000000C01400000014070B5044690F83C00B4
:100B800000260D4601280FD0012084F83C006AB1F0
:100B9000042A1DD0082A2FD00C2A3FD0012600207D
:100BA00084F83C00304670BD022070BD206800F023
:100BB0001BFB2068816941F008018161206881691F
:100BC00021F004018161206881692A69114311E0E3
:100BD000206800F035FB2068816941F40061816183
:100BE0002068816921F480618161206881692A69B6
:100BF00041EA02218161D2E7206800F04FFB2068C2
:100C0000C16941F00801C1612068C16921F0040196
:100C1000C1612068C1692A69114311E0206800F0B0
:100C200069FB2068C16941F40061C1612068C16944
:100C300021F48061C1612068C1692A6941EA022109
:100C4000C161ACE710B5040003D094F83D0010B1C9
:100C500007E0012010BD002084F83C00204600F091
:100C60001FF8022084F83D00211D206800F078FA6A
:100C7000012084F8460084F83E0084F83F0084F8A0
:100C8000400084F8410084F8420084F8430084F86E
:100C9000440084F8450084F83D00002010BD0000A9
:100CA00008B50068B0F1804F08D10548C16941F02E
:100CB0000101C161C06900F00100009008BD0000A1
:100CC0000010024010B5044649B104290AD0082991
:100CD0000BD094F8410001280AD0012010BD94F8EF
:100CE0003E00F8E794F83F00F5E794F84000F2E79B
:100CF000022041B3042929D008292AD084F84100D0
:100D00000122206800F062FA13492068884203D16A
:100D1000426C42F4004242642068884208D0B0F13C
:100D2000804F05D00D49884202D00D49884204D138
:100D3000816801F00701062903D0016841F0010133
:100D40000160002010BD84F83E00D9E784F83F0020
:100D5000D6E784F84000D3E7002C014000040040AF
:100D600000080040FEE700002DE9F04385B00024B4
:100D700031480094019402940394816941F0100178
:100D80008161816901F010010491816941F02001C4
:100D90008161816901F020010491816941F00401C0
:100DA0008161816901F004010491816941F00801C8
:100DB00081618069214F00F008004FF400550490D4
:100DC000002229463846FFF76AFBDFF874800022CC
:100DD0001E214046FFF763FBDFF868900022F021F8
:100DE0004846FFF75CFB0095022601250396CDE9F6
:100DF000015469463846FFF75FFA1E20CDE9000529
:100E00000320CDE9024069464046FFF755FA20200D
:100E1000CDE90004694640460294FFF74DFAF02000
:100E2000CDE90005CDE9024669464846FFF744FA98
:100E300005B0BDE8F0830000001002400010014042
:100E400000080140000C014010B58AB0002407944E
:100E50001C2168460894FFF7B7F91A484FF0804103
:100E600001604721C0E9011440F2E731C0E90314F1
:100E70008461FFF7E7FE08B172B6FEE7079407A9A1
:100E800010480894FFF702FE08B172B6FEE7602032
:100E9000CDE900040294002269460A480494FFF751
:100EA0006BFE08B172B6FEE7042269460548FFF7FB
:100EB00063FE08B172B6FEE70248FFF71BFE0AB0F8
:100EC00010BD000024000020FEE7FEE710B56420FE
:100ED000FFF7E0F91A4C002202212046FFF7DFFA63
:100EE000012204212046FFF7DAFA002208212046D9
:100EF000FFF7D5FA05221349302000F0BFF8114959
:100F00000522491D2A2000F0B9F80021202000F018
:100F1000D9F80121212000F0D5F80121222000F08C
:100F2000D1F80021252000F0CDF82021312000F05B
:100F3000C9F80721BDE81040262000F0C3B8000022
:100F400000080140000000202DE9F041DFF83C805E
:100F500015460E4607460024224604214046FFF768
:100F60009EFA384600F048F8074605E0002000F0F9
:100F700043F83055641CE4B2AC42F7D3012204219B
:100F80004046FFF78CFA3846BDE8F0810008014082
:100F900070B50A4C0546002204212046FFF77FFA6F
:100FA000284600F029F8002000F026F80546012226
:100FB00004212046FFF773FA284670BD000801405F
:100FC00070B5064600250720FFF7E2FF04464006FD
:100FD0000AD5002202210748FFF761FA2022314694
:100FE0006120FFF7B1FF01252146272000F06AF8B4
:100FF000284670BD000801402DE9F041124F05461A
:101000000024280601D5012200E0002210213846E4
:10101000FFF745FA6806060E012208213846FFF759
:101020003EFA20213846FFF72DFA40EA0605002255
:1010300008213846FFF733FA641CE4B2082CE0D3E9
:101040002846BDE8F08100000008014010B50A4CB8
:10105000002202212046FFF722FA0F21202000F073
:1010600031F8012202212046FFF719FABDE81040AD
:101070008220FFF70FB90000000801402DE9F04180
:10108000DFF83C8016460D46074600242246042120
:101090004046FFF704FA3846FFF7AEFF074605E083
:1010A00015F8010BFFF7A8FF641CE4B2B442F7D3B4
:1010B000012204214046FFF7F2F93846BDE8F081ED
:1010C0000008014070B50B4C0E4605460022042175
:1010D0002046FFF7E4F92846FFF78EFF0546304625
:1010E000FFF78AFF012204212046FFF7D8F928469E
:1010F00070BD00000008014070477047FFF7DAB983
:1011000030B58FB028216846FFF75EF814210AA891
:10111000FFF75AF80120010400248DE81300049021
:101120004FF4E010CDE90810022507956846FFF757
:101130000DFB08B172B6FEE70F20CDE90A054FF4AA
:101140008060CDE90C4002210AA80E94FFF73CFA1A
:10115000002801D072B6FEE70FB030BD7047000026
:10116000F0B50268164C174D174E4FF08047A0425D
:1011700005D0B84203D0A84201D0B04203D122F03A
:1011800070034A681A43A04205D0B84203D0A8426F
:1011900001D0B04203D122F44073CA681A434B69AC
:1011A00022F080021A4302608A68C2620A68826280
:1011B000A04201D10969016301214161F0BD000034
:1011C000002C0140000400400008004010B501F070
:1011D0001F010123046A8B409C430462036A8A4016
:1011E0001343036210BD000030B5026A036A23F0A6
:1011F000010303624368846924F073050C682C437F
:1012000022F002058A682A430C4DA84206D122F03A
:101210000805CA6842EA050222F0040207D14D69B6
:1012200023F4407345EA03058B6943EA05034360F1
:10123000846149684163026230BD0000002C0140B6
:1012400030B5036A026A22F01002026242688469C1
:101250000D6824F4E64444EA05248D6823F0200355
:1012600043EA05130C4DA84206D1CD6823F0800354
:1012700043EA051323F0400307D14D6922F440628D
:1012800042EA85028D6942EA8502426084614968CA
:101290008163036230BD0000002C014030B5026A5A
:1012A000036A23F4807303624368C46922F4007202
:1012B00024F073050C682C438D6842EA05220C4D1E
:1012C000A84206D1CD6822F4006242EA052222F447
:1012D000806207D14D6923F4405343EA05138D69B9
:1012E00043EA05134360C4614968C163026230BDCB
:1012F000002C014030B5046A026A22F48052026276
:101300004268C3690D6823F4E64343EA05238D6808
:1013100024F4005444EA0534064DA84204D14D6932
:1013200022F4804242EA85124260C3614968016446
:10133000046230BD002C0140FEE70907090E0028B9
:1013400004DB00F1E02080F80014704700F00F008B
:1013500000F1E02080F8141D70470000FFF7B2F89C
:10136000FFF7CEFEFFF700FDFFF76EFDFFF7AEFDC6
:10137000FFF76CFE694E002210213046FFF78FF810
:10138000012220213046FFF78AF800224021304612
:10139000FFF785F8012280213046FFF780F8002111
:1013A0005F48FFF78FFC04215D48FFF78BFCDFF8F7
:1013B00070810025D8F800104D63D8F800008563CF
:1013C000584C4FF496772078012809D1544848307A
:1013D000FFF7F6FD01282CD04FF4FA606080A08062
:1013E00020780228EFD1608840F26C71884258D290
:1013F000002210213046FFF752F80122202130460A
:10140000FFF74DF8002240213046FFF748F801224F
:1014100080213046FFF743F860884FF47A71A0F2DC
:101420006C704843404990FBF1F290FBF1F0E28090
:101430005CE04FF400513D48FFF729F8FFF706FE46
:10144000374848300178C278303901EB4103C3EBAB
:10145000C11102EBC103427864214A43817801EB58
:10146000810102EB41011944A1F5A051D0396180FD
:101470000179C279303901EB4103C3EBC11102EBB1
:10148000C102417980796423594300EB800001EB6C
:1014900040001044A0F5A050D038A0800220207059
:1014A000A1E740F63401884225D9012210213046B7
:1014B000FEF7F5FF002220213046FEF7F0FF012263
:1014C00040213046FEF7EBFF002280213046FEF738
:1014D000E6FF60884FF47A71A0F63400484340F28A
:1014E000CB7290FBF2F190FBF2F0E1802081E0887A
:1014F000B84202D302E0E5802581E5802089B84228
:1015000000D22581D8F80020E1885163D8F8000086
:10151000218981630120207055E70000000C014003
:10152000240000200A00002094F8FFFF0010014072
:10153000010202030405060708090A0B0C0D0E0F31
:101540001010000000000000000001020304060764
:1015500008090000741500080000002024000000A5
:10156000280100089815000824000020B406000097
:1015700044010008683108100168310810010100B9
:10158000D007D0070000000001000000100000009C
:08159000000000000024F4003B
:04000005080000ED02
:00000001FF
